{
  "contractName": "Adoption",
  "abi": [
    {
      "inputs": [],
      "payable": false,
      "stateMutability": "nonpayable",
      "type": "constructor"
    },
    {
      "anonymous": false,
      "inputs": [
        {
          "indexed": false,
          "internalType": "address",
          "name": "from",
          "type": "address"
        },
        {
          "indexed": false,
          "internalType": "uint256",
          "name": "_petId",
          "type": "uint256"
        }
      ],
      "name": "RandomPet",
      "type": "event"
    },
    {
      "constant": true,
      "inputs": [
        {
          "internalType": "uint256",
          "name": "",
          "type": "uint256"
        }
      ],
      "name": "adopters",
      "outputs": [
        {
          "internalType": "address",
          "name": "",
          "type": "address"
        }
      ],
      "payable": false,
      "stateMutability": "view",
      "type": "function"
    },
    {
      "constant": true,
      "inputs": [],
      "name": "owner",
      "outputs": [
        {
          "internalType": "address",
          "name": "",
          "type": "address"
        }
      ],
      "payable": false,
      "stateMutability": "view",
      "type": "function"
    },
    {
      "constant": true,
      "inputs": [],
      "name": "getOwner",
      "outputs": [
        {
          "internalType": "address",
          "name": "",
          "type": "address"
        }
      ],
      "payable": false,
      "stateMutability": "view",
      "type": "function"
    },
    {
      "constant": true,
      "inputs": [],
      "name": "getBalance",
      "outputs": [
        {
          "internalType": "uint256",
          "name": "",
          "type": "uint256"
        }
      ],
      "payable": false,
      "stateMutability": "view",
      "type": "function"
    },
    {
      "constant": false,
      "inputs": [
        {
          "internalType": "uint256",
          "name": "petId",
          "type": "uint256"
        }
      ],
      "name": "adopt",
      "outputs": [
        {
          "internalType": "uint256",
          "name": "",
          "type": "uint256"
        }
      ],
      "payable": false,
      "stateMutability": "nonpayable",
      "type": "function"
    },
    {
      "constant": true,
      "inputs": [],
      "name": "getAdopters",
      "outputs": [
        {
          "internalType": "address[16]",
          "name": "",
          "type": "address[16]"
        }
      ],
      "payable": false,
      "stateMutability": "view",
      "type": "function"
    },
    {
      "constant": false,
      "inputs": [
        {
          "internalType": "uint256",
          "name": "nounce",
          "type": "uint256"
        }
      ],
      "name": "randomPet",
      "outputs": [],
      "payable": false,
      "stateMutability": "nonpayable",
      "type": "function"
    }
  ],
  "bytecode": "0x608060405234801561001057600080fd5b5033601060006101000a81548173ffffffffffffffffffffffffffffffffffffffff021916908373ffffffffffffffffffffffffffffffffffffffff16021790555061063f806100616000396000f3fe608060405234801561001057600080fd5b506004361061007d5760003560e01c80638588b2c51161005b5780638588b2c514610154578063893d20e8146101965780638da5cb5b146101e0578063f25dbc721461022a5761007d565b806312065fe0146100825780633de4eb17146100a057806343ae80d3146100e6575b600080fd5b61008a610258565b6040518082815260200191505060405180910390f35b6100a8610260565b6040518082601060200280838360005b838110156100d35780820151818401526020810190506100b8565b5050505090500191505060405180910390f35b610112600480360360208110156100fc57600080fd5b81019080803590602001909291905050506102e1565b604051808273ffffffffffffffffffffffffffffffffffffffff1673ffffffffffffffffffffffffffffffffffffffff16815260200191505060405180910390f35b6101806004803603602081101561016a57600080fd5b8101908080359060200190929190505050610314565b6040518082815260200191505060405180910390f35b61019e610385565b604051808273ffffffffffffffffffffffffffffffffffffffff1673ffffffffffffffffffffffffffffffffffffffff16815260200191505060405180910390f35b6101e86103af565b604051808273ffffffffffffffffffffffffffffffffffffffff1673ffffffffffffffffffffffffffffffffffffffff16815260200191505060405180910390f35b6102566004803603602081101561024057600080fd5b81019080803590602001909291905050506103d5565b005b600047905090565b6102686105e7565b60006010806020026040519081016040528092919082601080156102d7576020028201915b8160009054906101000a900473ffffffffffffffffffffffffffffffffffffffff1673ffffffffffffffffffffffffffffffffffffffff168152602001906001019080831161028d575b5050505050905090565b600081601081106102ee57fe5b016000915054906101000a900473ffffffffffffffffffffffffffffffffffffffff1681565b60008082101580156103275750600f8211155b61033057600080fd5b336000836010811061033e57fe5b0160006101000a81548173ffffffffffffffffffffffffffffffffffffffff021916908373ffffffffffffffffffffffffffffffffffffffff160217905550819050919050565b6000601060009054906101000a900473ffffffffffffffffffffffffffffffffffffffff16905090565b601060009054906101000a900473ffffffffffffffffffffffffffffffffffffffff1681565b60006103e260108361056b565b905060008290505b600073ffffffffffffffffffffffffffffffffffffffff166000836010811061040f57fe5b0160009054906101000a900473ffffffffffffffffffffffffffffffffffffffff1673ffffffffffffffffffffffffffffffffffffffff16141580156104585750826010820114155b156104755760018301925061046e60108461056b565b91506103ea565b8260108201146104f95761048882610314565b507fe6352de0e33f35e56c7d5b17303b67ad358e008dcd6034626f88a79a80aaa08c3383604051808373ffffffffffffffffffffffffffffffffffffffff1673ffffffffffffffffffffffffffffffffffffffff1681526020018281526020019250505060405180910390a1610566565b7fe6352de0e33f35e56c7d5b17303b67ad358e008dcd6034626f88a79a80aaa08c336011604051808373ffffffffffffffffffffffffffffffffffffffff1673ffffffffffffffffffffffffffffffffffffffff1681526020018281526020019250505060405180910390a15b505050565b600082423384604051602001808481526020018373ffffffffffffffffffffffffffffffffffffffff1673ffffffffffffffffffffffffffffffffffffffff1660601b815260140182815260200193505050506040516020818303038152906040528051906020012060001c816105de57fe5b06905092915050565b60405180610200016040528060109060208202803883398082019150509050509056fea265627a7a723158200f39815f961d46ee5e74ea9f1441c043ec93ef5ac9710a7f7c4e04e66a0a1fc064736f6c63430005100032",
  "source": "pragma solidity ^0.5.0;\r\n\r\ncontract Adoption {\r\n    // create address type variable name adopters\r\n    address[16] public adopters;\r\n\r\n    address public owner;\r\n    \r\n    // event\r\n    event RandomPet(\r\n        address from,\r\n        uint _petId\r\n    );\r\n\r\n    // Defining a constructor\r\n\tconstructor() public{\r\n\t\towner=msg.sender;\r\n\t}\r\n\r\n\t// Function to get\r\n\t// address of owner\r\n\tfunction getOwner(\r\n\t) public view returns (address) {\t\r\n\t\treturn owner;\r\n\t}\r\n\r\n\t// Function to return\r\n\t// current balance of owner\r\n\tfunction getBalance(\r\n\t) public view returns(uint){\r\n\t\treturn address(this).balance;\r\n\t} \r\n\r\n    // Adopting a pet\r\n    function adopt(uint petId) public returns (uint) {\r\n        // check rule before\r\n        require(petId >= 0 && petId <= 15);\r\n\r\n        // msg.sender is address of person or smart contract that call function\r\n        adopters[petId] = msg.sender;\r\n\r\n        return petId;\r\n    }\r\n\r\n    // Retrieving the adopters\r\n    // view mean this function will not change state\r\n    // memory gives the data location for the variable\r\n    function getAdopters() public view returns (address[16] memory) {\r\n        return adopters;\r\n    }\r\n\r\n    // random unadopt pet\r\n    function randomPet(uint nounce) public {\r\n        uint randomPetIndex = random(16, nounce);\r\n        uint oldnounce = nounce;\r\n        // re-random if pet already adopted\r\n        while(adopters[randomPetIndex] != address(0) && oldnounce + 16 != nounce){\r\n            nounce = nounce + 1;\r\n            randomPetIndex = random(16, nounce); \r\n        }\r\n\r\n        if(oldnounce + 16 != nounce){\r\n            adopt(randomPetIndex);\r\n            emit RandomPet(msg.sender, randomPetIndex);\r\n        }\r\n        else{\r\n            emit RandomPet(msg.sender, 17);\r\n        }\r\n    }\r\n\r\n    // util: random\r\n    function random(uint max, uint nounce) private view returns(uint){\r\n        return uint(keccak256(abi.encodePacked(block.timestamp, msg.sender, nounce))) % max;\r\n    }\r\n\r\n}",
  "sourcePath": "D:\\GitHub\\truffle-pet-shop\\contracts\\Adoption.sol",
  "compiler": {
    "name": "solc",
    "version": "0.5.16+commit.9c3226ce.Emscripten.clang"
  },
  "schemaVersion": "3.4.7",
  "updatedAt": "2022-05-02T07:49:05.198Z",
  "networkType": "ethereum",
  "devdoc": {
    "methods": {}
  },
  "userdoc": {
    "methods": {}
  }
}