{
  "contractName": "Lottery",
  "abi": [
    {
      "inputs": [],
      "payable": true,
      "stateMutability": "payable",
      "type": "constructor"
    },
    {
      "constant": true,
      "inputs": [],
      "name": "manager",
      "outputs": [
        {
          "internalType": "address",
          "name": "",
          "type": "address"
        }
      ],
      "payable": false,
      "stateMutability": "view",
      "type": "function"
    },
    {
      "constant": true,
      "inputs": [
        {
          "internalType": "uint256",
          "name": "",
          "type": "uint256"
        }
      ],
      "name": "players",
      "outputs": [
        {
          "internalType": "address payable",
          "name": "",
          "type": "address"
        }
      ],
      "payable": false,
      "stateMutability": "view",
      "type": "function"
    },
    {
      "constant": false,
      "inputs": [],
      "name": "enter",
      "outputs": [],
      "payable": true,
      "stateMutability": "payable",
      "type": "function"
    },
    {
      "constant": false,
      "inputs": [],
      "name": "pickWinner",
      "outputs": [],
      "payable": false,
      "stateMutability": "nonpayable",
      "type": "function"
    },
    {
      "constant": true,
      "inputs": [],
      "name": "getPlayers",
      "outputs": [
        {
          "internalType": "address payable[]",
          "name": "",
          "type": "address[]"
        }
      ],
      "payable": false,
      "stateMutability": "view",
      "type": "function"
    }
  ],
  "bytecode": "0x6080604052336000806101000a81548173ffffffffffffffffffffffffffffffffffffffff021916908373ffffffffffffffffffffffffffffffffffffffff1602179055506105fa806100536000396000f3fe60806040526004361061004a5760003560e01c8063481c6a751461004f5780635d495aea146100a65780638b5b9ccc146100bd578063e97dcb6214610129578063f71d96cb14610133575b600080fd5b34801561005b57600080fd5b506100646101ae565b604051808273ffffffffffffffffffffffffffffffffffffffff1673ffffffffffffffffffffffffffffffffffffffff16815260200191505060405180910390f35b3480156100b257600080fd5b506100bb6101d3565b005b3480156100c957600080fd5b506100d2610311565b6040518080602001828103825283818151815260200191508051906020019060200280838360005b838110156101155780820151818401526020810190506100fa565b505050509050019250505060405180910390f35b61013161039f565b005b34801561013f57600080fd5b5061016c6004803603602081101561015657600080fd5b810190808035906020019092919050505061041a565b604051808273ffffffffffffffffffffffffffffffffffffffff1673ffffffffffffffffffffffffffffffffffffffff16815260200191505060405180910390f35b6000809054906101000a900473ffffffffffffffffffffffffffffffffffffffff1681565b6000809054906101000a900473ffffffffffffffffffffffffffffffffffffffff1673ffffffffffffffffffffffffffffffffffffffff163373ffffffffffffffffffffffffffffffffffffffff161461022c57600080fd5b60018054905061023a610456565b8161024157fe5b0660028190555060016002548154811061025757fe5b9060005260206000200160009054906101000a900473ffffffffffffffffffffffffffffffffffffffff1673ffffffffffffffffffffffffffffffffffffffff166108fc479081150290604051600060405180830381858888f193505050501580156102c7573d6000803e3d6000fd5b5060006040519080825280602002602001820160405280156102f85781602001602082028038833980820191505090505b506001908051906020019061030e9291906104f8565b50565b6060600180548060200260200160405190810160405280929190818152602001828054801561039557602002820191906000526020600020905b8160009054906101000a900473ffffffffffffffffffffffffffffffffffffffff1673ffffffffffffffffffffffffffffffffffffffff168152602001906001019080831161034b575b5050505050905090565b66470de4df82000034146103b257600080fd5b60013390806001815401808255809150509060018203906000526020600020016000909192909190916101000a81548173ffffffffffffffffffffffffffffffffffffffff021916908373ffffffffffffffffffffffffffffffffffffffff16021790555050565b6001818154811061042757fe5b906000526020600020016000915054906101000a900473ffffffffffffffffffffffffffffffffffffffff1681565b6000444260016040516020018084815260200183815260200182805480156104d357602002820191906000526020600020905b8160009054906101000a900473ffffffffffffffffffffffffffffffffffffffff1673ffffffffffffffffffffffffffffffffffffffff1681526020019060010190808311610489575b505093505050506040516020818303038152906040528051906020012060001c905090565b828054828255906000526020600020908101928215610571579160200282015b828111156105705782518260006101000a81548173ffffffffffffffffffffffffffffffffffffffff021916908373ffffffffffffffffffffffffffffffffffffffff16021790555091602001919060010190610518565b5b50905061057e9190610582565b5090565b6105c291905b808211156105be57600081816101000a81549073ffffffffffffffffffffffffffffffffffffffff021916905550600101610588565b5090565b9056fea265627a7a723158207aa6ed891a5ec674b92e3bcb85952b1cb387a3d2dbf932466ecac93bd0bbd60d64736f6c63430005100032",
  "source": "pragma solidity ^0.5.0;\r\n\r\ncontract Lottery {\r\n    address public manager;\r\n    address payable[] public players;\r\n    uint index;\r\n\r\n    constructor () public payable {\r\n        manager = msg.sender;\r\n    }\r\n\r\n    function enter() public payable {\r\n        require(msg.value == .02 ether);\r\n        players.push(msg.sender);\r\n    }\r\n\r\n    function random() private view returns (uint) {\r\n        return uint(keccak256(abi.encodePacked(block.difficulty, now, players)));\r\n    }\r\n\r\n    function pickWinner() public restricted {\r\n        index = random() % players.length;\r\n        players[index].transfer(address(this).balance);\r\n        players = new address payable[](0);\r\n    }\r\n\r\n    modifier restricted() {\r\n        require(msg.sender == manager);\r\n        _;\r\n    }\r\n\r\n    function getPlayers() public view returns ( address payable[] memory) {\r\n        return players;\r\n    }\r\n\r\n}",
  "sourcePath": "C:\\Users\\tsuna\\Documents\\GitHub\\truffle-pet-shop\\contracts\\Lottery.sol",
  "compiler": {
    "name": "solc",
    "version": "0.5.16+commit.9c3226ce.Emscripten.clang"
  },
  "schemaVersion": "3.4.6",
  "updatedAt": "2022-05-01T10:03:20.585Z",
  "devdoc": {
    "methods": {}
  },
  "userdoc": {
    "methods": {}
  }
}